{
  "_format": "hh-sol-artifact-1",
  "contractName": "YokozunaNFT",
  "sourceName": "contracts/YokozunaNFT.sol",
  "abi": [
    {
      "inputs": [
        {
          "internalType": "string",
          "name": "imageURI",
          "type": "string"
        }
      ],
      "stateMutability": "nonpayable",
      "type": "constructor"
    },
    {
      "inputs": [
        {
          "internalType": "address",
          "name": "sender",
          "type": "address"
        },
        {
          "internalType": "uint256",
          "name": "tokenId",
          "type": "uint256"
        },
        {
          "internalType": "address",
          "name": "owner",
          "type": "address"
        }
      ],
      "name": "ERC721IncorrectOwner",
      "type": "error"
    },
    {
      "inputs": [
        {
          "internalType": "address",
          "name": "operator",
          "type": "address"
        },
        {
          "internalType": "uint256",
          "name": "tokenId",
          "type": "uint256"
        }
      ],
      "name": "ERC721InsufficientApproval",
      "type": "error"
    },
    {
      "inputs": [
        {
          "internalType": "address",
          "name": "approver",
          "type": "address"
        }
      ],
      "name": "ERC721InvalidApprover",
      "type": "error"
    },
    {
      "inputs": [
        {
          "internalType": "address",
          "name": "operator",
          "type": "address"
        }
      ],
      "name": "ERC721InvalidOperator",
      "type": "error"
    },
    {
      "inputs": [
        {
          "internalType": "address",
          "name": "owner",
          "type": "address"
        }
      ],
      "name": "ERC721InvalidOwner",
      "type": "error"
    },
    {
      "inputs": [
        {
          "internalType": "address",
          "name": "receiver",
          "type": "address"
        }
      ],
      "name": "ERC721InvalidReceiver",
      "type": "error"
    },
    {
      "inputs": [
        {
          "internalType": "address",
          "name": "sender",
          "type": "address"
        }
      ],
      "name": "ERC721InvalidSender",
      "type": "error"
    },
    {
      "inputs": [
        {
          "internalType": "uint256",
          "name": "tokenId",
          "type": "uint256"
        }
      ],
      "name": "ERC721NonexistentToken",
      "type": "error"
    },
    {
      "inputs": [
        {
          "internalType": "address",
          "name": "owner",
          "type": "address"
        }
      ],
      "name": "OwnableInvalidOwner",
      "type": "error"
    },
    {
      "inputs": [
        {
          "internalType": "address",
          "name": "account",
          "type": "address"
        }
      ],
      "name": "OwnableUnauthorizedAccount",
      "type": "error"
    },
    {
      "anonymous": false,
      "inputs": [
        {
          "indexed": true,
          "internalType": "address",
          "name": "owner",
          "type": "address"
        },
        {
          "indexed": true,
          "internalType": "address",
          "name": "approved",
          "type": "address"
        },
        {
          "indexed": true,
          "internalType": "uint256",
          "name": "tokenId",
          "type": "uint256"
        }
      ],
      "name": "Approval",
      "type": "event"
    },
    {
      "anonymous": false,
      "inputs": [
        {
          "indexed": true,
          "internalType": "address",
          "name": "owner",
          "type": "address"
        },
        {
          "indexed": true,
          "internalType": "address",
          "name": "operator",
          "type": "address"
        },
        {
          "indexed": false,
          "internalType": "bool",
          "name": "approved",
          "type": "bool"
        }
      ],
      "name": "ApprovalForAll",
      "type": "event"
    },
    {
      "anonymous": false,
      "inputs": [
        {
          "indexed": true,
          "internalType": "address",
          "name": "previousOwner",
          "type": "address"
        },
        {
          "indexed": true,
          "internalType": "address",
          "name": "newOwner",
          "type": "address"
        }
      ],
      "name": "OwnershipTransferred",
      "type": "event"
    },
    {
      "anonymous": false,
      "inputs": [
        {
          "indexed": true,
          "internalType": "address",
          "name": "from",
          "type": "address"
        },
        {
          "indexed": true,
          "internalType": "address",
          "name": "to",
          "type": "address"
        },
        {
          "indexed": true,
          "internalType": "uint256",
          "name": "tokenId",
          "type": "uint256"
        }
      ],
      "name": "Transfer",
      "type": "event"
    },
    {
      "anonymous": false,
      "inputs": [
        {
          "indexed": true,
          "internalType": "address",
          "name": "to",
          "type": "address"
        },
        {
          "indexed": true,
          "internalType": "uint256",
          "name": "generation",
          "type": "uint256"
        }
      ],
      "name": "YokozunaMinted",
      "type": "event"
    },
    {
      "inputs": [
        {
          "internalType": "address",
          "name": "to",
          "type": "address"
        },
        {
          "internalType": "uint256",
          "name": "tokenId",
          "type": "uint256"
        }
      ],
      "name": "approve",
      "outputs": [],
      "stateMutability": "nonpayable",
      "type": "function"
    },
    {
      "inputs": [
        {
          "internalType": "address",
          "name": "owner",
          "type": "address"
        }
      ],
      "name": "balanceOf",
      "outputs": [
        {
          "internalType": "uint256",
          "name": "",
          "type": "uint256"
        }
      ],
      "stateMutability": "view",
      "type": "function"
    },
    {
      "inputs": [
        {
          "internalType": "uint256",
          "name": "tokenId",
          "type": "uint256"
        }
      ],
      "name": "getApproved",
      "outputs": [
        {
          "internalType": "address",
          "name": "",
          "type": "address"
        }
      ],
      "stateMutability": "view",
      "type": "function"
    },
    {
      "inputs": [],
      "name": "imageURI",
      "outputs": [
        {
          "internalType": "string",
          "name": "",
          "type": "string"
        }
      ],
      "stateMutability": "view",
      "type": "function"
    },
    {
      "inputs": [
        {
          "internalType": "address",
          "name": "owner",
          "type": "address"
        },
        {
          "internalType": "address",
          "name": "operator",
          "type": "address"
        }
      ],
      "name": "isApprovedForAll",
      "outputs": [
        {
          "internalType": "bool",
          "name": "",
          "type": "bool"
        }
      ],
      "stateMutability": "view",
      "type": "function"
    },
    {
      "inputs": [],
      "name": "mint",
      "outputs": [
        {
          "internalType": "uint256",
          "name": "",
          "type": "uint256"
        }
      ],
      "stateMutability": "nonpayable",
      "type": "function"
    },
    {
      "inputs": [],
      "name": "name",
      "outputs": [
        {
          "internalType": "string",
          "name": "",
          "type": "string"
        }
      ],
      "stateMutability": "view",
      "type": "function"
    },
    {
      "inputs": [],
      "name": "nextGeneration",
      "outputs": [
        {
          "internalType": "uint256",
          "name": "",
          "type": "uint256"
        }
      ],
      "stateMutability": "view",
      "type": "function"
    },
    {
      "inputs": [],
      "name": "owner",
      "outputs": [
        {
          "internalType": "address",
          "name": "",
          "type": "address"
        }
      ],
      "stateMutability": "view",
      "type": "function"
    },
    {
      "inputs": [
        {
          "internalType": "uint256",
          "name": "tokenId",
          "type": "uint256"
        }
      ],
      "name": "ownerOf",
      "outputs": [
        {
          "internalType": "address",
          "name": "",
          "type": "address"
        }
      ],
      "stateMutability": "view",
      "type": "function"
    },
    {
      "inputs": [],
      "name": "renounceOwnership",
      "outputs": [],
      "stateMutability": "nonpayable",
      "type": "function"
    },
    {
      "inputs": [
        {
          "internalType": "address",
          "name": "from",
          "type": "address"
        },
        {
          "internalType": "address",
          "name": "to",
          "type": "address"
        },
        {
          "internalType": "uint256",
          "name": "tokenId",
          "type": "uint256"
        }
      ],
      "name": "safeTransferFrom",
      "outputs": [],
      "stateMutability": "nonpayable",
      "type": "function"
    },
    {
      "inputs": [
        {
          "internalType": "address",
          "name": "from",
          "type": "address"
        },
        {
          "internalType": "address",
          "name": "to",
          "type": "address"
        },
        {
          "internalType": "uint256",
          "name": "tokenId",
          "type": "uint256"
        },
        {
          "internalType": "bytes",
          "name": "data",
          "type": "bytes"
        }
      ],
      "name": "safeTransferFrom",
      "outputs": [],
      "stateMutability": "nonpayable",
      "type": "function"
    },
    {
      "inputs": [
        {
          "internalType": "address",
          "name": "operator",
          "type": "address"
        },
        {
          "internalType": "bool",
          "name": "approved",
          "type": "bool"
        }
      ],
      "name": "setApprovalForAll",
      "outputs": [],
      "stateMutability": "nonpayable",
      "type": "function"
    },
    {
      "inputs": [
        {
          "internalType": "string",
          "name": "newImageURI",
          "type": "string"
        }
      ],
      "name": "setImageURI",
      "outputs": [],
      "stateMutability": "nonpayable",
      "type": "function"
    },
    {
      "inputs": [
        {
          "internalType": "bytes4",
          "name": "interfaceId",
          "type": "bytes4"
        }
      ],
      "name": "supportsInterface",
      "outputs": [
        {
          "internalType": "bool",
          "name": "",
          "type": "bool"
        }
      ],
      "stateMutability": "view",
      "type": "function"
    },
    {
      "inputs": [],
      "name": "symbol",
      "outputs": [
        {
          "internalType": "string",
          "name": "",
          "type": "string"
        }
      ],
      "stateMutability": "view",
      "type": "function"
    },
    {
      "inputs": [
        {
          "internalType": "uint256",
          "name": "tokenId",
          "type": "uint256"
        }
      ],
      "name": "tokenURI",
      "outputs": [
        {
          "internalType": "string",
          "name": "",
          "type": "string"
        }
      ],
      "stateMutability": "view",
      "type": "function"
    },
    {
      "inputs": [],
      "name": "totalMinted",
      "outputs": [
        {
          "internalType": "uint256",
          "name": "",
          "type": "uint256"
        }
      ],
      "stateMutability": "view",
      "type": "function"
    },
    {
      "inputs": [
        {
          "internalType": "address",
          "name": "from",
          "type": "address"
        },
        {
          "internalType": "address",
          "name": "to",
          "type": "address"
        },
        {
          "internalType": "uint256",
          "name": "tokenId",
          "type": "uint256"
        }
      ],
      "name": "transferFrom",
      "outputs": [],
      "stateMutability": "nonpayable",
      "type": "function"
    },
    {
      "inputs": [
        {
          "internalType": "address",
          "name": "newOwner",
          "type": "address"
        }
      ],
      "name": "transferOwnership",
      "outputs": [],
      "stateMutability": "nonpayable",
      "type": "function"
    }
  ],
  "bytecode": "0x608060405260016007553480156200001657600080fd5b5060405162001ade38038062001ade833981016040819052620000399162000158565b3360405180604001604052806008815260200167596f6b6f7a756e6160c01b81525060405180604001604052806008815260200167594f4b4f5a554e4160c01b81525081600090816200008d9190620002bc565b5060016200009c8282620002bc565b5050506001600160a01b038116620000ce57604051631e4fbdf760e01b81526000600482015260240160405180910390fd5b620000d981620000f0565b506008620000e88282620002bc565b505062000388565b600680546001600160a01b038381166001600160a01b0319831681179093556040519116919082907f8be0079c531659141344cd1fd0a4f28419497f9722a3daafe3b4186f6b6457e090600090a35050565b634e487b7160e01b600052604160045260246000fd5b600060208083850312156200016c57600080fd5b82516001600160401b03808211156200018457600080fd5b818501915085601f8301126200019957600080fd5b815181811115620001ae57620001ae62000142565b604051601f8201601f19908116603f01168101908382118183101715620001d957620001d962000142565b816040528281528886848701011115620001f257600080fd5b600093505b82841015620002165784840186015181850187015292850192620001f7565b600086848301015280965050505050505092915050565b600181811c908216806200024257607f821691505b6020821081036200026357634e487b7160e01b600052602260045260246000fd5b50919050565b601f821115620002b757600081815260208120601f850160051c81016020861015620002925750805b601f850160051c820191505b81811015620002b3578281556001016200029e565b5050505b505050565b81516001600160401b03811115620002d857620002d862000142565b620002f081620002e984546200022d565b8462000269565b602080601f8311600181146200032857600084156200030f5750858301515b600019600386901b1c1916600185901b178555620002b3565b600085815260208120601f198616915b82811015620003595788860151825594840194600190910190840162000338565b5085821015620003785787850151600019600388901b60f8161c191681555b5050505050600190811b01905550565b61174680620003986000396000f3fe608060405234801561001057600080fd5b50600436106101375760003560e01c806370a08231116100b8578063a2309ff81161007c578063a2309ff81461026a578063b88d4fde14610272578063c87b56dd14610285578063daefd00914610298578063e985e9c5146102a0578063f2fde38b146102b357600080fd5b806370a0823114610223578063715018a6146102365780638da5cb5b1461023e57806395d89b411461024f578063a22cb4651461025757600080fd5b80631249c58b116100ff5780631249c58b146101cc578063135d088d146101e257806323b872dd146101ea57806342842e0e146101fd5780636352211e1461021057600080fd5b806301ffc9a71461013c57806304787ca21461016457806306fdde0314610179578063081812fc1461018e578063095ea7b3146101b9575b600080fd5b61014f61014a366004610faf565b6102c6565b60405190151581526020015b60405180910390f35b610177610172366004611058565b610318565b005b610181610330565b60405161015b91906110f1565b6101a161019c366004611104565b6103c2565b6040516001600160a01b03909116815260200161015b565b6101776101c7366004611139565b6103eb565b6101d46103f6565b60405190815260200161015b565b61018161044a565b6101776101f8366004611163565b610459565b61017761020b366004611163565b6104e9565b6101a161021e366004611104565b610509565b6101d461023136600461119f565b610514565b61017761055c565b6006546001600160a01b03166101a1565b610181610570565b6101776102653660046111ba565b61057f565b6101d461058a565b6101776102803660046111f6565b6105a0565b610181610293366004611104565b6105b8565b6007546101d4565b61014f6102ae366004611272565b61062b565b6101776102c136600461119f565b610659565b60006001600160e01b031982166380ac58cd60e01b14806102f757506001600160e01b03198216635b5e139f60e01b145b8061031257506301ffc9a760e01b6001600160e01b03198316145b92915050565b610320610697565b600861032c8282611325565b5050565b60606000805461033f906112a5565b80601f016020809104026020016040519081016040528092919081815260200182805461036b906112a5565b80156103b85780601f1061038d576101008083540402835291602001916103b8565b820191906000526020600020905b81548152906001019060200180831161039b57829003601f168201915b5050505050905090565b60006103cd826106c4565b506000828152600460205260409020546001600160a01b0316610312565b61032c8282336106fd565b60078054600091819083610409836113fb565b9190505550610418338261070a565b604051819033907f3023836a0575852feb95fa42d68de3d27e5ddf73f0541d88f289c72e05f1a9c390600090a3919050565b60606008805461033f906112a5565b6001600160a01b03821661048857604051633250574960e11b8152600060048201526024015b60405180910390fd5b6000610495838333610724565b9050836001600160a01b0316816001600160a01b0316146104e3576040516364283d7b60e01b81526001600160a01b038086166004830152602482018490528216604482015260640161047f565b50505050565b610504838383604051806020016040528060008152506105a0565b505050565b6000610312826106c4565b60006001600160a01b038216610540576040516322718ad960e21b81526000600482015260240161047f565b506001600160a01b031660009081526003602052604090205490565b610564610697565b61056e600061081f565b565b60606001805461033f906112a5565b61032c338383610871565b6000600160075461059b9190611414565b905090565b6105ab848484610459565b6104e33385858585610910565b60606105c3826106c4565b5060006105cf83610a3b565b90506000610600826008846040516020016105ec93929190611443565b604051602081830303815290604052610ace565b90508060405160200161061391906115e5565b60405160208183030381529060405292505050919050565b6001600160a01b03918216600090815260056020908152604080832093909416825291909152205460ff1690565b610661610697565b6001600160a01b03811661068b57604051631e4fbdf760e01b81526000600482015260240161047f565b6106948161081f565b50565b6006546001600160a01b0316331461056e5760405163118cdaa760e01b815233600482015260240161047f565b6000818152600260205260408120546001600160a01b03168061031257604051637e27328960e01b81526004810184905260240161047f565b6105048383836001610af4565b61032c828260405180602001604052806000815250610bfa565b6000828152600260205260408120546001600160a01b039081169083161561075157610751818486610c12565b6001600160a01b0381161561078f5761076e600085600080610af4565b6001600160a01b038116600090815260036020526040902080546000190190555b6001600160a01b038516156107be576001600160a01b0385166000908152600360205260409020805460010190555b60008481526002602052604080822080546001600160a01b0319166001600160a01b0389811691821790925591518793918516917fddf252ad1be2c89b69c2b068fc378daa952ba7f163c4a11628f55a4df523b3ef91a490505b9392505050565b600680546001600160a01b038381166001600160a01b0319831681179093556040519116919082907f8be0079c531659141344cd1fd0a4f28419497f9722a3daafe3b4186f6b6457e090600090a35050565b6001600160a01b0382166108a357604051630b61174360e31b81526001600160a01b038316600482015260240161047f565b6001600160a01b03838116600081815260056020908152604080832094871680845294825291829020805460ff191686151590811790915591519182527f17307eab39ab6107e8899845ad3d59bd9653f200f220920489ca2b5937696c31910160405180910390a3505050565b6001600160a01b0383163b15610a3457604051630a85bd0160e11b81526001600160a01b0384169063150b7a029061095290889088908790879060040161162a565b6020604051808303816000875af192505050801561098d575060408051601f3d908101601f1916820190925261098a91810190611667565b60015b6109f6573d8080156109bb576040519150601f19603f3d011682016040523d82523d6000602084013e6109c0565b606091505b5080516000036109ee57604051633250574960e11b81526001600160a01b038516600482015260240161047f565b805160208201fd5b6001600160e01b03198116630a85bd0160e11b14610a3257604051633250574960e11b81526001600160a01b038516600482015260240161047f565b505b5050505050565b60606000610a4883610c76565b600101905060008167ffffffffffffffff811115610a6857610a68610fcc565b6040519080825280601f01601f191660200182016040528015610a92576020820181803683370190505b5090508181016020015b600019016f181899199a1a9b1b9c1cb0b131b232b360811b600a86061a8153600a8504945084610a9c57509392505050565b6060610312826040518060600160405280604081526020016116d1604091396001610d4e565b8080610b0857506001600160a01b03821615155b15610bca576000610b18846106c4565b90506001600160a01b03831615801590610b445750826001600160a01b0316816001600160a01b031614155b8015610b575750610b55818461062b565b155b15610b805760405163a9fbf51f60e01b81526001600160a01b038416600482015260240161047f565b8115610bc85783856001600160a01b0316826001600160a01b03167f8c5be1e5ebec7d5bd14f71427d1e84f3dd0314c0f7b2291e5b200ac8c7c3b92560405160405180910390a45b505b5050600090815260046020526040902080546001600160a01b0319166001600160a01b0392909216919091179055565b610c048383610ece565b610504336000858585610910565b610c1d838383610f33565b610504576001600160a01b038316610c4b57604051637e27328960e01b81526004810182905260240161047f565b60405163177e802f60e01b81526001600160a01b03831660048201526024810182905260440161047f565b60008072184f03e93ff9f4daa797ed6e38ed64bf6a1f0160401b8310610cb55772184f03e93ff9f4daa797ed6e38ed64bf6a1f0160401b830492506040015b6d04ee2d6d415b85acef81000000008310610ce1576d04ee2d6d415b85acef8100000000830492506020015b662386f26fc100008310610cff57662386f26fc10000830492506010015b6305f5e1008310610d17576305f5e100830492506008015b6127108310610d2b57612710830492506004015b60648310610d3d576064830492506002015b600a83106103125760010192915050565b60608351600003610d6e5750604080516020810190915260008152610818565b600082610d9f57600385516004610d859190611684565b610d9090600261169b565b610d9a91906116ae565b610dc4565b600385516002610daf919061169b565b610db991906116ae565b610dc4906004611684565b905060008167ffffffffffffffff811115610de157610de1610fcc565b6040519080825280601f01601f191660200182016040528015610e0b576020820181803683370190505b50905060018501602082018788518901602081018051600082525b82841015610e81576003840193508351603f8160121c168701518653600186019550603f81600c1c168701518653600186019550603f8160061c168701518653600186019550603f8116870151865350600185019450610e26565b905250508515610ec257600388510660018114610ea55760028114610eb857610ec0565b603d6001830353603d6002830353610ec0565b603d60018303535b505b50909695505050505050565b6001600160a01b038216610ef857604051633250574960e11b81526000600482015260240161047f565b6000610f0683836000610724565b90506001600160a01b03811615610504576040516339e3563760e11b81526000600482015260240161047f565b60006001600160a01b03831615801590610f915750826001600160a01b0316846001600160a01b03161480610f6d5750610f6d848461062b565b80610f9157506000828152600460205260409020546001600160a01b038481169116145b949350505050565b6001600160e01b03198116811461069457600080fd5b600060208284031215610fc157600080fd5b813561081881610f99565b634e487b7160e01b600052604160045260246000fd5b600067ffffffffffffffff80841115610ffd57610ffd610fcc565b604051601f8501601f19908116603f0116810190828211818310171561102557611025610fcc565b8160405280935085815286868601111561103e57600080fd5b858560208301376000602087830101525050509392505050565b60006020828403121561106a57600080fd5b813567ffffffffffffffff81111561108157600080fd5b8201601f8101841361109257600080fd5b610f9184823560208401610fe2565b60005b838110156110bc5781810151838201526020016110a4565b50506000910152565b600081518084526110dd8160208601602086016110a1565b601f01601f19169290920160200192915050565b60208152600061081860208301846110c5565b60006020828403121561111657600080fd5b5035919050565b80356001600160a01b038116811461113457600080fd5b919050565b6000806040838503121561114c57600080fd5b6111558361111d565b946020939093013593505050565b60008060006060848603121561117857600080fd5b6111818461111d565b925061118f6020850161111d565b9150604084013590509250925092565b6000602082840312156111b157600080fd5b6108188261111d565b600080604083850312156111cd57600080fd5b6111d68361111d565b9150602083013580151581146111eb57600080fd5b809150509250929050565b6000806000806080858703121561120c57600080fd5b6112158561111d565b93506112236020860161111d565b925060408501359150606085013567ffffffffffffffff81111561124657600080fd5b8501601f8101871361125757600080fd5b61126687823560208401610fe2565b91505092959194509250565b6000806040838503121561128557600080fd5b61128e8361111d565b915061129c6020840161111d565b90509250929050565b600181811c908216806112b957607f821691505b6020821081036112d957634e487b7160e01b600052602260045260246000fd5b50919050565b601f82111561050457600081815260208120601f850160051c810160208610156113065750805b601f850160051c820191505b81811015610a3257828155600101611312565b815167ffffffffffffffff81111561133f5761133f610fcc565b6113538161134d84546112a5565b846112df565b602080601f83116001811461138857600084156113705750858301515b600019600386901b1c1916600185901b178555610a32565b600085815260208120601f198616915b828110156113b757888601518255948401946001909101908401611398565b50858210156113d55787850151600019600388901b60f8161c191681555b5050505050600190811b01905550565b634e487b7160e01b600052601160045260246000fd5b60006001820161140d5761140d6113e5565b5060010190565b81810381811115610312576103126113e5565b600081516114398185602086016110a1565b9290920192915050565b693d913730b6b2911d101160b11b81526239eb2b60ea1b600a8201528351600090602061147682600d8601838a016110a1565b68e4bba3e6a8aae7b6b160b81b600d9285019283015272111610113232b9b1b934b83a34b7b7111d101160691b60168301527fe79bb8e692b2e382b2e383bce383a0e381a7e6a8aae7b6b1e381abe69887e98060298301526c5971c0cbf1c0cff4545e71c04160991b60498301526c1116101134b6b0b3b2911d101160991b6056830152855460639060009061150b816112a5565b60018281168015611523576001811461153c5761156c565b60ff19841688870152821515830288018601945061156c565b8b6000528660002060005b848110156115625781548a8201890152908301908801611547565b5050858389010194505b50507f222c202261747472696275746573223a205b7b2274726169745f74797065223a835250507f202247656e65726174696f6e222c202276616c7565223a20000000000000000060208201526115d86115c96038830189611427565b627d5d7d60e81b815260030190565b9998505050505050505050565b7f646174613a6170706c69636174696f6e2f6a736f6e3b6261736536342c00000081526000825161161d81601d8501602087016110a1565b91909101601d0192915050565b6001600160a01b038581168252841660208201526040810183905260806060820181905260009061165d908301846110c5565b9695505050505050565b60006020828403121561167957600080fd5b815161081881610f99565b8082028115828204841417610312576103126113e5565b80820180821115610312576103126113e5565b6000826116cb57634e487b7160e01b600052601260045260246000fd5b50049056fe4142434445464748494a4b4c4d4e4f505152535455565758595a6162636465666768696a6b6c6d6e6f707172737475767778797a303132333435363738392b2fa26469706673582212205bc0d2ab6b42110edb95cec474fe042af4d0725a9c80cfbf99eeafe9b3af8edc64736f6c63430008140033",
  "linkReferences": {},
  "deployedLinkReferences": {}
}